{
	"verification/contracts/generated/implementation/verification/FheAgentVerification.sol": {
		"FheAgentVerification": {
			"abi": [
				{
					"inputs": [
						{
							"components": [
								{
									"internalType": "bytes32[]",
									"name": "merkleProof",
									"type": "bytes32[]"
								},
								{
									"components": [
										{
											"internalType": "bytes32",
											"name": "attestationType",
											"type": "bytes32"
										},
										{
											"internalType": "bytes32",
											"name": "sourceId",
											"type": "bytes32"
										},
										{
											"internalType": "uint64",
											"name": "votingRound",
											"type": "uint64"
										},
										{
											"internalType": "uint64",
											"name": "lowestUsedTimestamp",
											"type": "uint64"
										},
										{
											"components": [
												{
													"internalType": "string",
													"name": "data_id",
													"type": "string"
												},
												{
													"internalType": "string",
													"name": "data_hash",
													"type": "string"
												},
												{
													"internalType": "string",
													"name": "model",
													"type": "string"
												},
												{
													"internalType": "string",
													"name": "abi_signature",
													"type": "string"
												}
											],
											"internalType": "struct IFheAgent.RequestBody",
											"name": "requestBody",
											"type": "tuple"
										},
										{
											"components": [
												{
													"internalType": "bytes",
													"name": "abi_encoded_data",
													"type": "bytes"
												}
											],
											"internalType": "struct IFheAgent.ResponseBody",
											"name": "responseBody",
											"type": "tuple"
										}
									],
									"internalType": "struct IFheAgent.Response",
									"name": "data",
									"type": "tuple"
								}
							],
							"internalType": "struct IFheAgent.Proof",
							"name": "_proof",
							"type": "tuple"
						}
					],
					"name": "verifyFheAgent",
					"outputs": [
						{
							"internalType": "bool",
							"name": "_proved",
							"type": "bool"
						}
					],
					"stateMutability": "pure",
					"type": "function"
				}
			],
			"devdoc": {
				"kind": "dev",
				"methods": {},
				"version": 1
			},
			"evm": {
				"assembly": "    /* \"verification/contracts/generated/implementation/verification/FheAgentVerification.sol\":251:564  contract FheAgentVerification is IFheAgentVerification {... */\n  mstore(0x40, 0x80)\n  callvalue\n  dup1\n  iszero\n  tag_1\n  jumpi\n  0x00\n  dup1\n  revert\ntag_1:\n  pop\n  dataSize(sub_0)\n  dup1\n  dataOffset(sub_0)\n  0x00\n  codecopy\n  0x00\n  return\nstop\n\nsub_0: assembly {\n        /* \"verification/contracts/generated/implementation/verification/FheAgentVerification.sol\":251:564  contract FheAgentVerification is IFheAgentVerification {... */\n      mstore(0x40, 0x80)\n      callvalue\n      dup1\n      iszero\n      tag_1\n      jumpi\n      0x00\n      dup1\n      revert\n    tag_1:\n      pop\n      jumpi(tag_2, lt(calldatasize, 0x04))\n      shr(0xe0, calldataload(0x00))\n      dup1\n      0x22e90cd5\n      eq\n      tag_3\n      jumpi\n    tag_2:\n      0x00\n      dup1\n      revert\n        /* \"verification/contracts/generated/implementation/verification/FheAgentVerification.sol\":376:560  function verifyFheAgent(... */\n    tag_3:\n      tag_4\n      tag_5\n      calldatasize\n      0x04\n      tag_6\n      jump\t// in\n    tag_5:\n      tag_7\n      jump\t// in\n    tag_4:\n      mload(0x40)\n        /* \"#utility.yul\":567:581   */\n      swap1\n      iszero\n        /* \"#utility.yul\":560:582   */\n      iszero\n        /* \"#utility.yul\":542:583   */\n      dup2\n      mstore\n        /* \"#utility.yul\":530:532   */\n      0x20\n        /* \"#utility.yul\":515:533   */\n      add\n        /* \"verification/contracts/generated/implementation/verification/FheAgentVerification.sol\":376:560  function verifyFheAgent(... */\n      mload(0x40)\n      dup1\n      swap2\n      sub\n      swap1\n      return\n    tag_7:\n        /* \"verification/contracts/generated/implementation/verification/FheAgentVerification.sol\":471:483  bool _proved */\n      0x00\n      shl(0xc2, 0x119a195059d95b9d)\n        /* \"verification/contracts/generated/implementation/verification/FheAgentVerification.sol\":502:513  _proof.data */\n      tag_11\n      0x20\n      dup5\n      add\n        /* \"verification/contracts/generated/implementation/verification/FheAgentVerification.sol\":502:508  _proof */\n      dup5\n        /* \"verification/contracts/generated/implementation/verification/FheAgentVerification.sol\":502:513  _proof.data */\n      tag_12\n      jump\t// in\n    tag_11:\n        /* \"verification/contracts/generated/implementation/verification/FheAgentVerification.sol\":502:529  _proof.data.attestationType */\n      calldataload\n        /* \"verification/contracts/generated/implementation/verification/FheAgentVerification.sol\":502:552  _proof.data.attestationType == bytes32(\"FheAgent\") */\n      eq\n      swap3\n        /* \"verification/contracts/generated/implementation/verification/FheAgentVerification.sol\":376:560  function verifyFheAgent(... */\n      swap2\n      pop\n      pop\n      jump\t// out\n        /* \"#utility.yul\":14:397   */\n    tag_6:\n        /* \"#utility.yul\":97:103   */\n      0x00\n        /* \"#utility.yul\":150:152   */\n      0x20\n        /* \"#utility.yul\":138:147   */\n      dup3\n        /* \"#utility.yul\":129:136   */\n      dup5\n        /* \"#utility.yul\":125:148   */\n      sub\n        /* \"#utility.yul\":121:153   */\n      slt\n        /* \"#utility.yul\":118:170   */\n      iszero\n      tag_15\n      jumpi\n        /* \"#utility.yul\":166:167   */\n      0x00\n        /* \"#utility.yul\":163:164   */\n      dup1\n        /* \"#utility.yul\":156:168   */\n      revert\n        /* \"#utility.yul\":118:170   */\n    tag_15:\n        /* \"#utility.yul\":206:215   */\n      dup2\n        /* \"#utility.yul\":193:216   */\n      calldataload\n        /* \"#utility.yul\":239:257   */\n      0xffffffffffffffff\n        /* \"#utility.yul\":231:237   */\n      dup2\n        /* \"#utility.yul\":228:258   */\n      gt\n        /* \"#utility.yul\":225:275   */\n      iszero\n      tag_16\n      jumpi\n        /* \"#utility.yul\":271:272   */\n      0x00\n        /* \"#utility.yul\":268:269   */\n      dup1\n        /* \"#utility.yul\":261:273   */\n      revert\n        /* \"#utility.yul\":225:275   */\n    tag_16:\n        /* \"#utility.yul\":294:316   */\n      dup3\n      add\n        /* \"#utility.yul\":350:352   */\n      0x40\n        /* \"#utility.yul\":332:348   */\n      dup2\n      dup6\n      sub\n        /* \"#utility.yul\":328:353   */\n      slt\n        /* \"#utility.yul\":325:370   */\n      iszero\n      tag_17\n      jumpi\n        /* \"#utility.yul\":366:367   */\n      0x00\n        /* \"#utility.yul\":363:364   */\n      dup1\n        /* \"#utility.yul\":356:368   */\n      revert\n        /* \"#utility.yul\":325:370   */\n    tag_17:\n        /* \"#utility.yul\":389:391   */\n      swap4\n        /* \"#utility.yul\":14:397   */\n      swap3\n      pop\n      pop\n      pop\n      jump\t// out\n        /* \"#utility.yul\":594:919   */\n    tag_12:\n        /* \"#utility.yul\":687:691   */\n      0x00\n        /* \"#utility.yul\":745:756   */\n      dup3\n        /* \"#utility.yul\":732:757   */\n      calldataload\n        /* \"#utility.yul\":839:842   */\n      0xbe\n        /* \"#utility.yul\":835:843   */\n      not\n        /* \"#utility.yul\":824:832   */\n      dup4\n        /* \"#utility.yul\":808:822   */\n      calldatasize\n        /* \"#utility.yul\":804:833   */\n      sub\n        /* \"#utility.yul\":800:844   */\n      add\n        /* \"#utility.yul\":780:798   */\n      dup2\n        /* \"#utility.yul\":776:845   */\n      slt\n        /* \"#utility.yul\":766:863   */\n      tag_20\n      jumpi\n        /* \"#utility.yul\":859:860   */\n      0x00\n        /* \"#utility.yul\":856:857   */\n      dup1\n        /* \"#utility.yul\":849:861   */\n      revert\n        /* \"#utility.yul\":766:863   */\n    tag_20:\n        /* \"#utility.yul\":880:913   */\n      swap2\n      swap1\n      swap2\n      add\n      swap3\n        /* \"#utility.yul\":594:919   */\n      swap2\n      pop\n      pop\n      jump\t// out\n\n    auxdata: 0xa26469706673582212203835f4abba932bd8162a3248cdbfa19ade1bf807750e0835f95979a28e8976b664736f6c634300081a0033\n}\n",
				"bytecode": {
					"linkReferences": {},
					"object": "6080604052348015600f57600080fd5b506101058061001f6000396000f3fe6080604052348015600f57600080fd5b506004361060285760003560e01c806322e90cd514602d575b600080fd5b603c60383660046071565b6050565b604051901515815260200160405180910390f35b600067119a195059d95b9d60c21b6069602084018460b0565b351492915050565b600060208284031215608257600080fd5b813567ffffffffffffffff811115609857600080fd5b82016040818503121560a957600080fd5b9392505050565b6000823560be1983360301811260c557600080fd5b919091019291505056fea26469706673582212203835f4abba932bd8162a3248cdbfa19ade1bf807750e0835f95979a28e8976b664736f6c634300081a0033",
					"opcodes": "PUSH1 0x80 PUSH1 0x40 MSTORE CALLVALUE DUP1 ISZERO PUSH1 0xF JUMPI PUSH1 0x0 DUP1 REVERT JUMPDEST POP PUSH2 0x105 DUP1 PUSH2 0x1F PUSH1 0x0 CODECOPY PUSH1 0x0 RETURN INVALID PUSH1 0x80 PUSH1 0x40 MSTORE CALLVALUE DUP1 ISZERO PUSH1 0xF JUMPI PUSH1 0x0 DUP1 REVERT JUMPDEST POP PUSH1 0x4 CALLDATASIZE LT PUSH1 0x28 JUMPI PUSH1 0x0 CALLDATALOAD PUSH1 0xE0 SHR DUP1 PUSH4 0x22E90CD5 EQ PUSH1 0x2D JUMPI JUMPDEST PUSH1 0x0 DUP1 REVERT JUMPDEST PUSH1 0x3C PUSH1 0x38 CALLDATASIZE PUSH1 0x4 PUSH1 0x71 JUMP JUMPDEST PUSH1 0x50 JUMP JUMPDEST PUSH1 0x40 MLOAD SWAP1 ISZERO ISZERO DUP2 MSTORE PUSH1 0x20 ADD PUSH1 0x40 MLOAD DUP1 SWAP2 SUB SWAP1 RETURN JUMPDEST PUSH1 0x0 PUSH8 0x119A195059D95B9D PUSH1 0xC2 SHL PUSH1 0x69 PUSH1 0x20 DUP5 ADD DUP5 PUSH1 0xB0 JUMP JUMPDEST CALLDATALOAD EQ SWAP3 SWAP2 POP POP JUMP JUMPDEST PUSH1 0x0 PUSH1 0x20 DUP3 DUP5 SUB SLT ISZERO PUSH1 0x82 JUMPI PUSH1 0x0 DUP1 REVERT JUMPDEST DUP2 CALLDATALOAD PUSH8 0xFFFFFFFFFFFFFFFF DUP2 GT ISZERO PUSH1 0x98 JUMPI PUSH1 0x0 DUP1 REVERT JUMPDEST DUP3 ADD PUSH1 0x40 DUP2 DUP6 SUB SLT ISZERO PUSH1 0xA9 JUMPI PUSH1 0x0 DUP1 REVERT JUMPDEST SWAP4 SWAP3 POP POP POP JUMP JUMPDEST PUSH1 0x0 DUP3 CALLDATALOAD PUSH1 0xBE NOT DUP4 CALLDATASIZE SUB ADD DUP2 SLT PUSH1 0xC5 JUMPI PUSH1 0x0 DUP1 REVERT JUMPDEST SWAP2 SWAP1 SWAP2 ADD SWAP3 SWAP2 POP POP JUMP INVALID LOG2 PUSH5 0x6970667358 0x22 SLT KECCAK256 CODESIZE CALLDATALOAD DELEGATECALL 0xAB 0xBA SWAP4 0x2B 0xD8 AND 0x2A ORIGIN BASEFEE 0xCD 0xBF LOG1 SWAP11 0xDE SHL 0xF8 SMOD PUSH22 0xE0835F95979A28E8976B664736F6C634300081A0033 "
				},
				"gasEstimates": {
					"creation": {
						"codeDepositCost": "52200",
						"executionCost": "105",
						"totalCost": "52305"
					},
					"external": {
						"verifyFheAgent((bytes32[],(bytes32,bytes32,uint64,uint64,(string,string,string,string),(bytes))))": "451"
					}
				},
				"methodIdentifiers": {
					"verifyFheAgent((bytes32[],(bytes32,bytes32,uint64,uint64,(string,string,string,string),(bytes))))": "22e90cd5"
				}
			},
			"storageLayout": {
				"storage": [],
				"types": null
			},
			"userdoc": {
				"kind": "user",
				"methods": {},
				"notice": "Contract mocking verifying FheAgent attestations.",
				"version": 1
			}
		}
	}
}