{
	"data": {
		"bytecode": {
			"linkReferences": {},
			"object": "6080604052348015600f57600080fd5b50604051601a90605a565b604051809103906000f0801580156035573d6000803e3d6000fd5b50600180546001600160a01b0319166001600160a01b03929092169190911790556067565b61012480610bf383390190565b610b7d806100766000396000f3fe608060405234801561001057600080fd5b50600436106100415760003560e01c8063325f4658146100465780636bc784e01461007157806398fb89d51461009c575b600080fd5b610059610054366004610384565b6100b1565b604051610068939291906103e3565b60405180910390f35b600154610084906001600160a01b031681565b6040516001600160a01b039091168152602001610068565b6100af6100aa366004610418565b6101f7565b005b600081815481106100c157600080fd5b600091825260209091206003909102018054600182018054919350906100e690610459565b80601f016020809104026020016040519081016040528092919081815260200182805461011290610459565b801561015f5780601f106101345761010080835404028352916020019161015f565b820191906000526020600020905b81548152906001019060200180831161014257829003601f168201915b50505050509080600201805461017490610459565b80601f01602080910402602001604051908101604052809291908181526020018280546101a090610459565b80156101ed5780601f106101c2576101008083540402835291602001916101ed565b820191906000526020600020905b8154815290600101906020018083116101d057829003601f168201915b5050505050905083565b604080516000818301818152606083019093529181526020810161021a8461070b565b90526001546040516322e90cd560e01b81529192506001600160a01b0316906322e90cd59061024d9084906004016107ce565b602060405180830381865afa15801561026a573d6000803e3d6000fd5b505050506040513d601f19601f8201168201806040525081019061028e9190610907565b6102ce5760405162461bcd60e51b815260206004820152600d60248201526c24b73b30b634b210383937b7b360991b604482015260640160405180910390fd5b60006102dd60a0840184610929565b6102e79080610949565b8101906102f49190610996565b60008054600181018255908052815160039091027f290decd9548b62a8d60345a988386fc84ba6bc95484008f6362f93160ef3e5638101918255602083015192935083927f290decd9548b62a8d60345a988386fc84ba6bc95484008f6362f93160ef3e564909101906103679082610a89565b506040820151600282019061037c9082610a89565b505050505050565b60006020828403121561039657600080fd5b5035919050565b6000815180845260005b818110156103c3576020818501810151868301820152016103a7565b506000602082860101526020601f19601f83011685010191505092915050565b8381526060602082015260006103fc606083018561039d565b828103604084015261040e818561039d565b9695505050505050565b60006020828403121561042a57600080fd5b81356001600160401b0381111561044057600080fd5b820160c0818503121561045257600080fd5b9392505050565b600181811c9082168061046d57607f821691505b60208210810361048d57634e487b7160e01b600052602260045260246000fd5b50919050565b634e487b7160e01b600052604160045260246000fd5b604051608081016001600160401b03811182821017156104cb576104cb610493565b60405290565b60405160c081016001600160401b03811182821017156104cb576104cb610493565b604051606081016001600160401b03811182821017156104cb576104cb610493565b80356001600160401b038116811461052c57600080fd5b919050565b6000806001600160401b0384111561054b5761054b610493565b50604051601f19601f85018116603f011681018181106001600160401b038211171561057957610579610493565b60405283815290508082840185101561059157600080fd5b83836020830137600060208583010152509392505050565b600082601f8301126105ba57600080fd5b61045283833560208501610531565b6000608082840312156105db57600080fd5b6105e36104a9565b905081356001600160401b038111156105fb57600080fd5b610607848285016105a9565b82525060208201356001600160401b0381111561062357600080fd5b61062f848285016105a9565b60208301525060408201356001600160401b0381111561064e57600080fd5b61065a848285016105a9565b60408301525060608201356001600160401b0381111561067957600080fd5b610685848285016105a9565b60608301525092915050565b6000602082840312156106a357600080fd5b604051602081016001600160401b03811182821017156106c5576106c5610493565b60405290508082356001600160401b038111156106e157600080fd5b8301601f810185136106f257600080fd5b61070185823560208401610531565b8252505092915050565b600060c0823603121561071d57600080fd5b6107256104d1565b823581526020808401359082015261073f60408401610515565b604082015261075060608401610515565b606082015260808301356001600160401b0381111561076e57600080fd5b61077a368286016105c9565b60808301525060a08301356001600160401b0381111561079957600080fd5b6107a536828601610691565b60a08301525092915050565b60008151602084526107c6602085018261039d565b949350505050565b602080825282516040838301528051606084018190526000929190910190829060808501905b8083101561081757835182526020820191506020840193506001830192506107f4565b5060208601519250601f1985820301604086015282518152602083015160208201526001600160401b0360408401511660408201526001600160401b0360608401511660608201526080830151915060c060808201528151608060c083015261088461014083018261039d565b9050602083015160bf198383030160e08401526108a1828261039d565b915050604083015160bf19838303016101008401526108c0828261039d565b9150506060830151925060bf19828203016101208301526108e1818461039d565b92505060a0830151925080820360a0820152506108fe81836107b1565b95945050505050565b60006020828403121561091957600080fd5b8151801515811461045257600080fd5b60008235601e1983360301811261093f57600080fd5b9190910192915050565b6000808335601e1984360301811261096057600080fd5b8301803591506001600160401b0382111561097a57600080fd5b60200191503681900382131561098f57600080fd5b9250929050565b6000602082840312156109a857600080fd5b81356001600160401b038111156109be57600080fd5b8201606081850312156109d057600080fd5b6109d86104f3565b8135815260208201356001600160401b038111156109f557600080fd5b610a01868285016105a9565b60208301525060408201356001600160401b03811115610a2057600080fd5b610a2c868285016105a9565b604083015250949350505050565b601f821115610a8457806000526020600020601f840160051c81016020851015610a615750805b601f840160051c820191505b81811015610a815760008155600101610a6d565b50505b505050565b81516001600160401b03811115610aa257610aa2610493565b610ab681610ab08454610459565b84610a3a565b6020601f821160018114610aea5760008315610ad25750848201515b600019600385901b1c1916600184901b178455610a81565b600084815260208120601f198516915b82811015610b1a5787850151825560209485019460019092019101610afa565b5084821015610b385786840151600019600387901b60f8161c191681555b50505050600190811b0190555056fea2646970667358221220bda615fa05919c5c92e65319393d55fef4dc270cdb1ab6d7c85772cfcfead36864736f6c634300081a00336080604052348015600f57600080fd5b506101058061001f6000396000f3fe6080604052348015600f57600080fd5b506004361060285760003560e01c806322e90cd514602d575b600080fd5b603c60383660046071565b6050565b604051901515815260200160405180910390f35b600067119a195059d95b9d60c21b6069602084018460b0565b351492915050565b600060208284031215608257600080fd5b813567ffffffffffffffff811115609857600080fd5b82016040818503121560a957600080fd5b9392505050565b6000823560be1983360301811260c557600080fd5b919091019291505056fea26469706673582212203835f4abba932bd8162a3248cdbfa19ade1bf807750e0835f95979a28e8976b664736f6c634300081a0033",
			"opcodes": "PUSH1 0x80 PUSH1 0x40 MSTORE CALLVALUE DUP1 ISZERO PUSH1 0xF JUMPI PUSH1 0x0 DUP1 REVERT JUMPDEST POP PUSH1 0x40 MLOAD PUSH1 0x1A SWAP1 PUSH1 0x5A JUMP JUMPDEST PUSH1 0x40 MLOAD DUP1 SWAP2 SUB SWAP1 PUSH1 0x0 CREATE DUP1 ISZERO DUP1 ISZERO PUSH1 0x35 JUMPI RETURNDATASIZE PUSH1 0x0 DUP1 RETURNDATACOPY RETURNDATASIZE PUSH1 0x0 REVERT JUMPDEST POP PUSH1 0x1 DUP1 SLOAD PUSH1 0x1 PUSH1 0x1 PUSH1 0xA0 SHL SUB NOT AND PUSH1 0x1 PUSH1 0x1 PUSH1 0xA0 SHL SUB SWAP3 SWAP1 SWAP3 AND SWAP2 SWAP1 SWAP2 OR SWAP1 SSTORE PUSH1 0x67 JUMP JUMPDEST PUSH2 0x124 DUP1 PUSH2 0xBF3 DUP4 CODECOPY ADD SWAP1 JUMP JUMPDEST PUSH2 0xB7D DUP1 PUSH2 0x76 PUSH1 0x0 CODECOPY PUSH1 0x0 RETURN INVALID PUSH1 0x80 PUSH1 0x40 MSTORE CALLVALUE DUP1 ISZERO PUSH2 0x10 JUMPI PUSH1 0x0 DUP1 REVERT JUMPDEST POP PUSH1 0x4 CALLDATASIZE LT PUSH2 0x41 JUMPI PUSH1 0x0 CALLDATALOAD PUSH1 0xE0 SHR DUP1 PUSH4 0x325F4658 EQ PUSH2 0x46 JUMPI DUP1 PUSH4 0x6BC784E0 EQ PUSH2 0x71 JUMPI DUP1 PUSH4 0x98FB89D5 EQ PUSH2 0x9C JUMPI JUMPDEST PUSH1 0x0 DUP1 REVERT JUMPDEST PUSH2 0x59 PUSH2 0x54 CALLDATASIZE PUSH1 0x4 PUSH2 0x384 JUMP JUMPDEST PUSH2 0xB1 JUMP JUMPDEST PUSH1 0x40 MLOAD PUSH2 0x68 SWAP4 SWAP3 SWAP2 SWAP1 PUSH2 0x3E3 JUMP JUMPDEST PUSH1 0x40 MLOAD DUP1 SWAP2 SUB SWAP1 RETURN JUMPDEST PUSH1 0x1 SLOAD PUSH2 0x84 SWAP1 PUSH1 0x1 PUSH1 0x1 PUSH1 0xA0 SHL SUB AND DUP2 JUMP JUMPDEST PUSH1 0x40 MLOAD PUSH1 0x1 PUSH1 0x1 PUSH1 0xA0 SHL SUB SWAP1 SWAP2 AND DUP2 MSTORE PUSH1 0x20 ADD PUSH2 0x68 JUMP JUMPDEST PUSH2 0xAF PUSH2 0xAA CALLDATASIZE PUSH1 0x4 PUSH2 0x418 JUMP JUMPDEST PUSH2 0x1F7 JUMP JUMPDEST STOP JUMPDEST PUSH1 0x0 DUP2 DUP2 SLOAD DUP2 LT PUSH2 0xC1 JUMPI PUSH1 0x0 DUP1 REVERT JUMPDEST PUSH1 0x0 SWAP2 DUP3 MSTORE PUSH1 0x20 SWAP1 SWAP2 KECCAK256 PUSH1 0x3 SWAP1 SWAP2 MUL ADD DUP1 SLOAD PUSH1 0x1 DUP3 ADD DUP1 SLOAD SWAP2 SWAP4 POP SWAP1 PUSH2 0xE6 SWAP1 PUSH2 0x459 JUMP JUMPDEST DUP1 PUSH1 0x1F ADD PUSH1 0x20 DUP1 SWAP2 DIV MUL PUSH1 0x20 ADD PUSH1 0x40 MLOAD SWAP1 DUP2 ADD PUSH1 0x40 MSTORE DUP1 SWAP3 SWAP2 SWAP1 DUP2 DUP2 MSTORE PUSH1 0x20 ADD DUP3 DUP1 SLOAD PUSH2 0x112 SWAP1 PUSH2 0x459 JUMP JUMPDEST DUP1 ISZERO PUSH2 0x15F JUMPI DUP1 PUSH1 0x1F LT PUSH2 0x134 JUMPI PUSH2 0x100 DUP1 DUP4 SLOAD DIV MUL DUP4 MSTORE SWAP2 PUSH1 0x20 ADD SWAP2 PUSH2 0x15F JUMP JUMPDEST DUP3 ADD SWAP2 SWAP1 PUSH1 0x0 MSTORE PUSH1 0x20 PUSH1 0x0 KECCAK256 SWAP1 JUMPDEST DUP2 SLOAD DUP2 MSTORE SWAP1 PUSH1 0x1 ADD SWAP1 PUSH1 0x20 ADD DUP1 DUP4 GT PUSH2 0x142 JUMPI DUP3 SWAP1 SUB PUSH1 0x1F AND DUP3 ADD SWAP2 JUMPDEST POP POP POP POP POP SWAP1 DUP1 PUSH1 0x2 ADD DUP1 SLOAD PUSH2 0x174 SWAP1 PUSH2 0x459 JUMP JUMPDEST DUP1 PUSH1 0x1F ADD PUSH1 0x20 DUP1 SWAP2 DIV MUL PUSH1 0x20 ADD PUSH1 0x40 MLOAD SWAP1 DUP2 ADD PUSH1 0x40 MSTORE DUP1 SWAP3 SWAP2 SWAP1 DUP2 DUP2 MSTORE PUSH1 0x20 ADD DUP3 DUP1 SLOAD PUSH2 0x1A0 SWAP1 PUSH2 0x459 JUMP JUMPDEST DUP1 ISZERO PUSH2 0x1ED JUMPI DUP1 PUSH1 0x1F LT PUSH2 0x1C2 JUMPI PUSH2 0x100 DUP1 DUP4 SLOAD DIV MUL DUP4 MSTORE SWAP2 PUSH1 0x20 ADD SWAP2 PUSH2 0x1ED JUMP JUMPDEST DUP3 ADD SWAP2 SWAP1 PUSH1 0x0 MSTORE PUSH1 0x20 PUSH1 0x0 KECCAK256 SWAP1 JUMPDEST DUP2 SLOAD DUP2 MSTORE SWAP1 PUSH1 0x1 ADD SWAP1 PUSH1 0x20 ADD DUP1 DUP4 GT PUSH2 0x1D0 JUMPI DUP3 SWAP1 SUB PUSH1 0x1F AND DUP3 ADD SWAP2 JUMPDEST POP POP POP POP POP SWAP1 POP DUP4 JUMP JUMPDEST PUSH1 0x40 DUP1 MLOAD PUSH1 0x0 DUP2 DUP4 ADD DUP2 DUP2 MSTORE PUSH1 0x60 DUP4 ADD SWAP1 SWAP4 MSTORE SWAP2 DUP2 MSTORE PUSH1 0x20 DUP2 ADD PUSH2 0x21A DUP5 PUSH2 0x70B JUMP JUMPDEST SWAP1 MSTORE PUSH1 0x1 SLOAD PUSH1 0x40 MLOAD PUSH4 0x22E90CD5 PUSH1 0xE0 SHL DUP2 MSTORE SWAP2 SWAP3 POP PUSH1 0x1 PUSH1 0x1 PUSH1 0xA0 SHL SUB AND SWAP1 PUSH4 0x22E90CD5 SWAP1 PUSH2 0x24D SWAP1 DUP5 SWAP1 PUSH1 0x4 ADD PUSH2 0x7CE JUMP JUMPDEST PUSH1 0x20 PUSH1 0x40 MLOAD DUP1 DUP4 SUB DUP2 DUP7 GAS STATICCALL ISZERO DUP1 ISZERO PUSH2 0x26A JUMPI RETURNDATASIZE PUSH1 0x0 DUP1 RETURNDATACOPY RETURNDATASIZE PUSH1 0x0 REVERT JUMPDEST POP POP POP POP PUSH1 0x40 MLOAD RETURNDATASIZE PUSH1 0x1F NOT PUSH1 0x1F DUP3 ADD AND DUP3 ADD DUP1 PUSH1 0x40 MSTORE POP DUP2 ADD SWAP1 PUSH2 0x28E SWAP2 SWAP1 PUSH2 0x907 JUMP JUMPDEST PUSH2 0x2CE JUMPI PUSH1 0x40 MLOAD PUSH3 0x461BCD PUSH1 0xE5 SHL DUP2 MSTORE PUSH1 0x20 PUSH1 0x4 DUP3 ADD MSTORE PUSH1 0xD PUSH1 0x24 DUP3 ADD MSTORE PUSH13 0x24B73B30B634B210383937B7B3 PUSH1 0x99 SHL PUSH1 0x44 DUP3 ADD MSTORE PUSH1 0x64 ADD PUSH1 0x40 MLOAD DUP1 SWAP2 SUB SWAP1 REVERT JUMPDEST PUSH1 0x0 PUSH2 0x2DD PUSH1 0xA0 DUP5 ADD DUP5 PUSH2 0x929 JUMP JUMPDEST PUSH2 0x2E7 SWAP1 DUP1 PUSH2 0x949 JUMP JUMPDEST DUP2 ADD SWAP1 PUSH2 0x2F4 SWAP2 SWAP1 PUSH2 0x996 JUMP JUMPDEST PUSH1 0x0 DUP1 SLOAD PUSH1 0x1 DUP2 ADD DUP3 SSTORE SWAP1 DUP1 MSTORE DUP2 MLOAD PUSH1 0x3 SWAP1 SWAP2 MUL PUSH32 0x290DECD9548B62A8D60345A988386FC84BA6BC95484008F6362F93160EF3E563 DUP2 ADD SWAP2 DUP3 SSTORE PUSH1 0x20 DUP4 ADD MLOAD SWAP3 SWAP4 POP DUP4 SWAP3 PUSH32 0x290DECD9548B62A8D60345A988386FC84BA6BC95484008F6362F93160EF3E564 SWAP1 SWAP2 ADD SWAP1 PUSH2 0x367 SWAP1 DUP3 PUSH2 0xA89 JUMP JUMPDEST POP PUSH1 0x40 DUP3 ADD MLOAD PUSH1 0x2 DUP3 ADD SWAP1 PUSH2 0x37C SWAP1 DUP3 PUSH2 0xA89 JUMP JUMPDEST POP POP POP POP POP POP JUMP JUMPDEST PUSH1 0x0 PUSH1 0x20 DUP3 DUP5 SUB SLT ISZERO PUSH2 0x396 JUMPI PUSH1 0x0 DUP1 REVERT JUMPDEST POP CALLDATALOAD SWAP2 SWAP1 POP JUMP JUMPDEST PUSH1 0x0 DUP2 MLOAD DUP1 DUP5 MSTORE PUSH1 0x0 JUMPDEST DUP2 DUP2 LT ISZERO PUSH2 0x3C3 JUMPI PUSH1 0x20 DUP2 DUP6 ADD DUP2 ADD MLOAD DUP7 DUP4 ADD DUP3 ADD MSTORE ADD PUSH2 0x3A7 JUMP JUMPDEST POP PUSH1 0x0 PUSH1 0x20 DUP3 DUP7 ADD ADD MSTORE PUSH1 0x20 PUSH1 0x1F NOT PUSH1 0x1F DUP4 ADD AND DUP6 ADD ADD SWAP2 POP POP SWAP3 SWAP2 POP POP JUMP JUMPDEST DUP4 DUP2 MSTORE PUSH1 0x60 PUSH1 0x20 DUP3 ADD MSTORE PUSH1 0x0 PUSH2 0x3FC PUSH1 0x60 DUP4 ADD DUP6 PUSH2 0x39D JUMP JUMPDEST DUP3 DUP2 SUB PUSH1 0x40 DUP5 ADD MSTORE PUSH2 0x40E DUP2 DUP6 PUSH2 0x39D JUMP JUMPDEST SWAP7 SWAP6 POP POP POP POP POP POP JUMP JUMPDEST PUSH1 0x0 PUSH1 0x20 DUP3 DUP5 SUB SLT ISZERO PUSH2 0x42A JUMPI PUSH1 0x0 DUP1 REVERT JUMPDEST DUP2 CALLDATALOAD PUSH1 0x1 PUSH1 0x1 PUSH1 0x40 SHL SUB DUP2 GT ISZERO PUSH2 0x440 JUMPI PUSH1 0x0 DUP1 REVERT JUMPDEST DUP3 ADD PUSH1 0xC0 DUP2 DUP6 SUB SLT ISZERO PUSH2 0x452 JUMPI PUSH1 0x0 DUP1 REVERT JUMPDEST SWAP4 SWAP3 POP POP POP JUMP JUMPDEST PUSH1 0x1 DUP2 DUP2 SHR SWAP1 DUP3 AND DUP1 PUSH2 0x46D JUMPI PUSH1 0x7F DUP3 AND SWAP2 POP JUMPDEST PUSH1 0x20 DUP3 LT DUP2 SUB PUSH2 0x48D JUMPI PUSH4 0x4E487B71 PUSH1 0xE0 SHL PUSH1 0x0 MSTORE PUSH1 0x22 PUSH1 0x4 MSTORE PUSH1 0x24 PUSH1 0x0 REVERT JUMPDEST POP SWAP2 SWAP1 POP JUMP JUMPDEST PUSH4 0x4E487B71 PUSH1 0xE0 SHL PUSH1 0x0 MSTORE PUSH1 0x41 PUSH1 0x4 MSTORE PUSH1 0x24 PUSH1 0x0 REVERT JUMPDEST PUSH1 0x40 MLOAD PUSH1 0x80 DUP2 ADD PUSH1 0x1 PUSH1 0x1 PUSH1 0x40 SHL SUB DUP2 GT DUP3 DUP3 LT OR ISZERO PUSH2 0x4CB JUMPI PUSH2 0x4CB PUSH2 0x493 JUMP JUMPDEST PUSH1 0x40 MSTORE SWAP1 JUMP JUMPDEST PUSH1 0x40 MLOAD PUSH1 0xC0 DUP2 ADD PUSH1 0x1 PUSH1 0x1 PUSH1 0x40 SHL SUB DUP2 GT DUP3 DUP3 LT OR ISZERO PUSH2 0x4CB JUMPI PUSH2 0x4CB PUSH2 0x493 JUMP JUMPDEST PUSH1 0x40 MLOAD PUSH1 0x60 DUP2 ADD PUSH1 0x1 PUSH1 0x1 PUSH1 0x40 SHL SUB DUP2 GT DUP3 DUP3 LT OR ISZERO PUSH2 0x4CB JUMPI PUSH2 0x4CB PUSH2 0x493 JUMP JUMPDEST DUP1 CALLDATALOAD PUSH1 0x1 PUSH1 0x1 PUSH1 0x40 SHL SUB DUP2 AND DUP2 EQ PUSH2 0x52C JUMPI PUSH1 0x0 DUP1 REVERT JUMPDEST SWAP2 SWAP1 POP JUMP JUMPDEST PUSH1 0x0 DUP1 PUSH1 0x1 PUSH1 0x1 PUSH1 0x40 SHL SUB DUP5 GT ISZERO PUSH2 0x54B JUMPI PUSH2 0x54B PUSH2 0x493 JUMP JUMPDEST POP PUSH1 0x40 MLOAD PUSH1 0x1F NOT PUSH1 0x1F DUP6 ADD DUP2 AND PUSH1 0x3F ADD AND DUP2 ADD DUP2 DUP2 LT PUSH1 0x1 PUSH1 0x1 PUSH1 0x40 SHL SUB DUP3 GT OR ISZERO PUSH2 0x579 JUMPI PUSH2 0x579 PUSH2 0x493 JUMP JUMPDEST PUSH1 0x40 MSTORE DUP4 DUP2 MSTORE SWAP1 POP DUP1 DUP3 DUP5 ADD DUP6 LT ISZERO PUSH2 0x591 JUMPI PUSH1 0x0 DUP1 REVERT JUMPDEST DUP4 DUP4 PUSH1 0x20 DUP4 ADD CALLDATACOPY PUSH1 0x0 PUSH1 0x20 DUP6 DUP4 ADD ADD MSTORE POP SWAP4 SWAP3 POP POP POP JUMP JUMPDEST PUSH1 0x0 DUP3 PUSH1 0x1F DUP4 ADD SLT PUSH2 0x5BA JUMPI PUSH1 0x0 DUP1 REVERT JUMPDEST PUSH2 0x452 DUP4 DUP4 CALLDATALOAD PUSH1 0x20 DUP6 ADD PUSH2 0x531 JUMP JUMPDEST PUSH1 0x0 PUSH1 0x80 DUP3 DUP5 SUB SLT ISZERO PUSH2 0x5DB JUMPI PUSH1 0x0 DUP1 REVERT JUMPDEST PUSH2 0x5E3 PUSH2 0x4A9 JUMP JUMPDEST SWAP1 POP DUP2 CALLDATALOAD PUSH1 0x1 PUSH1 0x1 PUSH1 0x40 SHL SUB DUP2 GT ISZERO PUSH2 0x5FB JUMPI PUSH1 0x0 DUP1 REVERT JUMPDEST PUSH2 0x607 DUP5 DUP3 DUP6 ADD PUSH2 0x5A9 JUMP JUMPDEST DUP3 MSTORE POP PUSH1 0x20 DUP3 ADD CALLDATALOAD PUSH1 0x1 PUSH1 0x1 PUSH1 0x40 SHL SUB DUP2 GT ISZERO PUSH2 0x623 JUMPI PUSH1 0x0 DUP1 REVERT JUMPDEST PUSH2 0x62F DUP5 DUP3 DUP6 ADD PUSH2 0x5A9 JUMP JUMPDEST PUSH1 0x20 DUP4 ADD MSTORE POP PUSH1 0x40 DUP3 ADD CALLDATALOAD PUSH1 0x1 PUSH1 0x1 PUSH1 0x40 SHL SUB DUP2 GT ISZERO PUSH2 0x64E JUMPI PUSH1 0x0 DUP1 REVERT JUMPDEST PUSH2 0x65A DUP5 DUP3 DUP6 ADD PUSH2 0x5A9 JUMP JUMPDEST PUSH1 0x40 DUP4 ADD MSTORE POP PUSH1 0x60 DUP3 ADD CALLDATALOAD PUSH1 0x1 PUSH1 0x1 PUSH1 0x40 SHL SUB DUP2 GT ISZERO PUSH2 0x679 JUMPI PUSH1 0x0 DUP1 REVERT JUMPDEST PUSH2 0x685 DUP5 DUP3 DUP6 ADD PUSH2 0x5A9 JUMP JUMPDEST PUSH1 0x60 DUP4 ADD MSTORE POP SWAP3 SWAP2 POP POP JUMP JUMPDEST PUSH1 0x0 PUSH1 0x20 DUP3 DUP5 SUB SLT ISZERO PUSH2 0x6A3 JUMPI PUSH1 0x0 DUP1 REVERT JUMPDEST PUSH1 0x40 MLOAD PUSH1 0x20 DUP2 ADD PUSH1 0x1 PUSH1 0x1 PUSH1 0x40 SHL SUB DUP2 GT DUP3 DUP3 LT OR ISZERO PUSH2 0x6C5 JUMPI PUSH2 0x6C5 PUSH2 0x493 JUMP JUMPDEST PUSH1 0x40 MSTORE SWAP1 POP DUP1 DUP3 CALLDATALOAD PUSH1 0x1 PUSH1 0x1 PUSH1 0x40 SHL SUB DUP2 GT ISZERO PUSH2 0x6E1 JUMPI PUSH1 0x0 DUP1 REVERT JUMPDEST DUP4 ADD PUSH1 0x1F DUP2 ADD DUP6 SGT PUSH2 0x6F2 JUMPI PUSH1 0x0 DUP1 REVERT JUMPDEST PUSH2 0x701 DUP6 DUP3 CALLDATALOAD PUSH1 0x20 DUP5 ADD PUSH2 0x531 JUMP JUMPDEST DUP3 MSTORE POP POP SWAP3 SWAP2 POP POP JUMP JUMPDEST PUSH1 0x0 PUSH1 0xC0 DUP3 CALLDATASIZE SUB SLT ISZERO PUSH2 0x71D JUMPI PUSH1 0x0 DUP1 REVERT JUMPDEST PUSH2 0x725 PUSH2 0x4D1 JUMP JUMPDEST DUP3 CALLDATALOAD DUP2 MSTORE PUSH1 0x20 DUP1 DUP5 ADD CALLDATALOAD SWAP1 DUP3 ADD MSTORE PUSH2 0x73F PUSH1 0x40 DUP5 ADD PUSH2 0x515 JUMP JUMPDEST PUSH1 0x40 DUP3 ADD MSTORE PUSH2 0x750 PUSH1 0x60 DUP5 ADD PUSH2 0x515 JUMP JUMPDEST PUSH1 0x60 DUP3 ADD MSTORE PUSH1 0x80 DUP4 ADD CALLDATALOAD PUSH1 0x1 PUSH1 0x1 PUSH1 0x40 SHL SUB DUP2 GT ISZERO PUSH2 0x76E JUMPI PUSH1 0x0 DUP1 REVERT JUMPDEST PUSH2 0x77A CALLDATASIZE DUP3 DUP7 ADD PUSH2 0x5C9 JUMP JUMPDEST PUSH1 0x80 DUP4 ADD MSTORE POP PUSH1 0xA0 DUP4 ADD CALLDATALOAD PUSH1 0x1 PUSH1 0x1 PUSH1 0x40 SHL SUB DUP2 GT ISZERO PUSH2 0x799 JUMPI PUSH1 0x0 DUP1 REVERT JUMPDEST PUSH2 0x7A5 CALLDATASIZE DUP3 DUP7 ADD PUSH2 0x691 JUMP JUMPDEST PUSH1 0xA0 DUP4 ADD MSTORE POP SWAP3 SWAP2 POP POP JUMP JUMPDEST PUSH1 0x0 DUP2 MLOAD PUSH1 0x20 DUP5 MSTORE PUSH2 0x7C6 PUSH1 0x20 DUP6 ADD DUP3 PUSH2 0x39D JUMP JUMPDEST SWAP5 SWAP4 POP POP POP POP JUMP JUMPDEST PUSH1 0x20 DUP1 DUP3 MSTORE DUP3 MLOAD PUSH1 0x40 DUP4 DUP4 ADD MSTORE DUP1 MLOAD PUSH1 0x60 DUP5 ADD DUP2 SWAP1 MSTORE PUSH1 0x0 SWAP3 SWAP2 SWAP1 SWAP2 ADD SWAP1 DUP3 SWAP1 PUSH1 0x80 DUP6 ADD SWAP1 JUMPDEST DUP1 DUP4 LT ISZERO PUSH2 0x817 JUMPI DUP4 MLOAD DUP3 MSTORE PUSH1 0x20 DUP3 ADD SWAP2 POP PUSH1 0x20 DUP5 ADD SWAP4 POP PUSH1 0x1 DUP4 ADD SWAP3 POP PUSH2 0x7F4 JUMP JUMPDEST POP PUSH1 0x20 DUP7 ADD MLOAD SWAP3 POP PUSH1 0x1F NOT DUP6 DUP3 SUB ADD PUSH1 0x40 DUP7 ADD MSTORE DUP3 MLOAD DUP2 MSTORE PUSH1 0x20 DUP4 ADD MLOAD PUSH1 0x20 DUP3 ADD MSTORE PUSH1 0x1 PUSH1 0x1 PUSH1 0x40 SHL SUB PUSH1 0x40 DUP5 ADD MLOAD AND PUSH1 0x40 DUP3 ADD MSTORE PUSH1 0x1 PUSH1 0x1 PUSH1 0x40 SHL SUB PUSH1 0x60 DUP5 ADD MLOAD AND PUSH1 0x60 DUP3 ADD MSTORE PUSH1 0x80 DUP4 ADD MLOAD SWAP2 POP PUSH1 0xC0 PUSH1 0x80 DUP3 ADD MSTORE DUP2 MLOAD PUSH1 0x80 PUSH1 0xC0 DUP4 ADD MSTORE PUSH2 0x884 PUSH2 0x140 DUP4 ADD DUP3 PUSH2 0x39D JUMP JUMPDEST SWAP1 POP PUSH1 0x20 DUP4 ADD MLOAD PUSH1 0xBF NOT DUP4 DUP4 SUB ADD PUSH1 0xE0 DUP5 ADD MSTORE PUSH2 0x8A1 DUP3 DUP3 PUSH2 0x39D JUMP JUMPDEST SWAP2 POP POP PUSH1 0x40 DUP4 ADD MLOAD PUSH1 0xBF NOT DUP4 DUP4 SUB ADD PUSH2 0x100 DUP5 ADD MSTORE PUSH2 0x8C0 DUP3 DUP3 PUSH2 0x39D JUMP JUMPDEST SWAP2 POP POP PUSH1 0x60 DUP4 ADD MLOAD SWAP3 POP PUSH1 0xBF NOT DUP3 DUP3 SUB ADD PUSH2 0x120 DUP4 ADD MSTORE PUSH2 0x8E1 DUP2 DUP5 PUSH2 0x39D JUMP JUMPDEST SWAP3 POP POP PUSH1 0xA0 DUP4 ADD MLOAD SWAP3 POP DUP1 DUP3 SUB PUSH1 0xA0 DUP3 ADD MSTORE POP PUSH2 0x8FE DUP2 DUP4 PUSH2 0x7B1 JUMP JUMPDEST SWAP6 SWAP5 POP POP POP POP POP JUMP JUMPDEST PUSH1 0x0 PUSH1 0x20 DUP3 DUP5 SUB SLT ISZERO PUSH2 0x919 JUMPI PUSH1 0x0 DUP1 REVERT JUMPDEST DUP2 MLOAD DUP1 ISZERO ISZERO DUP2 EQ PUSH2 0x452 JUMPI PUSH1 0x0 DUP1 REVERT JUMPDEST PUSH1 0x0 DUP3 CALLDATALOAD PUSH1 0x1E NOT DUP4 CALLDATASIZE SUB ADD DUP2 SLT PUSH2 0x93F JUMPI PUSH1 0x0 DUP1 REVERT JUMPDEST SWAP2 SWAP1 SWAP2 ADD SWAP3 SWAP2 POP POP JUMP JUMPDEST PUSH1 0x0 DUP1 DUP4 CALLDATALOAD PUSH1 0x1E NOT DUP5 CALLDATASIZE SUB ADD DUP2 SLT PUSH2 0x960 JUMPI PUSH1 0x0 DUP1 REVERT JUMPDEST DUP4 ADD DUP1 CALLDATALOAD SWAP2 POP PUSH1 0x1 PUSH1 0x1 PUSH1 0x40 SHL SUB DUP3 GT ISZERO PUSH2 0x97A JUMPI PUSH1 0x0 DUP1 REVERT JUMPDEST PUSH1 0x20 ADD SWAP2 POP CALLDATASIZE DUP2 SWAP1 SUB DUP3 SGT ISZERO PUSH2 0x98F JUMPI PUSH1 0x0 DUP1 REVERT JUMPDEST SWAP3 POP SWAP3 SWAP1 POP JUMP JUMPDEST PUSH1 0x0 PUSH1 0x20 DUP3 DUP5 SUB SLT ISZERO PUSH2 0x9A8 JUMPI PUSH1 0x0 DUP1 REVERT JUMPDEST DUP2 CALLDATALOAD PUSH1 0x1 PUSH1 0x1 PUSH1 0x40 SHL SUB DUP2 GT ISZERO PUSH2 0x9BE JUMPI PUSH1 0x0 DUP1 REVERT JUMPDEST DUP3 ADD PUSH1 0x60 DUP2 DUP6 SUB SLT ISZERO PUSH2 0x9D0 JUMPI PUSH1 0x0 DUP1 REVERT JUMPDEST PUSH2 0x9D8 PUSH2 0x4F3 JUMP JUMPDEST DUP2 CALLDATALOAD DUP2 MSTORE PUSH1 0x20 DUP3 ADD CALLDATALOAD PUSH1 0x1 PUSH1 0x1 PUSH1 0x40 SHL SUB DUP2 GT ISZERO PUSH2 0x9F5 JUMPI PUSH1 0x0 DUP1 REVERT JUMPDEST PUSH2 0xA01 DUP7 DUP3 DUP6 ADD PUSH2 0x5A9 JUMP JUMPDEST PUSH1 0x20 DUP4 ADD MSTORE POP PUSH1 0x40 DUP3 ADD CALLDATALOAD PUSH1 0x1 PUSH1 0x1 PUSH1 0x40 SHL SUB DUP2 GT ISZERO PUSH2 0xA20 JUMPI PUSH1 0x0 DUP1 REVERT JUMPDEST PUSH2 0xA2C DUP7 DUP3 DUP6 ADD PUSH2 0x5A9 JUMP JUMPDEST PUSH1 0x40 DUP4 ADD MSTORE POP SWAP5 SWAP4 POP POP POP POP JUMP JUMPDEST PUSH1 0x1F DUP3 GT ISZERO PUSH2 0xA84 JUMPI DUP1 PUSH1 0x0 MSTORE PUSH1 0x20 PUSH1 0x0 KECCAK256 PUSH1 0x1F DUP5 ADD PUSH1 0x5 SHR DUP2 ADD PUSH1 0x20 DUP6 LT ISZERO PUSH2 0xA61 JUMPI POP DUP1 JUMPDEST PUSH1 0x1F DUP5 ADD PUSH1 0x5 SHR DUP3 ADD SWAP2 POP JUMPDEST DUP2 DUP2 LT ISZERO PUSH2 0xA81 JUMPI PUSH1 0x0 DUP2 SSTORE PUSH1 0x1 ADD PUSH2 0xA6D JUMP JUMPDEST POP POP JUMPDEST POP POP POP JUMP JUMPDEST DUP2 MLOAD PUSH1 0x1 PUSH1 0x1 PUSH1 0x40 SHL SUB DUP2 GT ISZERO PUSH2 0xAA2 JUMPI PUSH2 0xAA2 PUSH2 0x493 JUMP JUMPDEST PUSH2 0xAB6 DUP2 PUSH2 0xAB0 DUP5 SLOAD PUSH2 0x459 JUMP JUMPDEST DUP5 PUSH2 0xA3A JUMP JUMPDEST PUSH1 0x20 PUSH1 0x1F DUP3 GT PUSH1 0x1 DUP2 EQ PUSH2 0xAEA JUMPI PUSH1 0x0 DUP4 ISZERO PUSH2 0xAD2 JUMPI POP DUP5 DUP3 ADD MLOAD JUMPDEST PUSH1 0x0 NOT PUSH1 0x3 DUP6 SWAP1 SHL SHR NOT AND PUSH1 0x1 DUP5 SWAP1 SHL OR DUP5 SSTORE PUSH2 0xA81 JUMP JUMPDEST PUSH1 0x0 DUP5 DUP2 MSTORE PUSH1 0x20 DUP2 KECCAK256 PUSH1 0x1F NOT DUP6 AND SWAP2 JUMPDEST DUP3 DUP2 LT ISZERO PUSH2 0xB1A JUMPI DUP8 DUP6 ADD MLOAD DUP3 SSTORE PUSH1 0x20 SWAP5 DUP6 ADD SWAP5 PUSH1 0x1 SWAP1 SWAP3 ADD SWAP2 ADD PUSH2 0xAFA JUMP JUMPDEST POP DUP5 DUP3 LT ISZERO PUSH2 0xB38 JUMPI DUP7 DUP5 ADD MLOAD PUSH1 0x0 NOT PUSH1 0x3 DUP8 SWAP1 SHL PUSH1 0xF8 AND SHR NOT AND DUP2 SSTORE JUMPDEST POP POP POP POP PUSH1 0x1 SWAP1 DUP2 SHL ADD SWAP1 SSTORE POP JUMP INVALID LOG2 PUSH5 0x6970667358 0x22 SLT KECCAK256 0xBD 0xA6 ISZERO STATICCALL SDIV SWAP2 SWAP13 TLOAD SWAP3 0xE6 MSTORE8 NOT CODECOPY RETURNDATASIZE SSTORE INVALID DELEGATECALL 0xDC 0x27 0xC 0xDB BYTE 0xB6 0xD7 0xC8 JUMPI PUSH19 0xCFCFEAD36864736F6C634300081A0033608060 BLOCKHASH MSTORE CALLVALUE DUP1 ISZERO PUSH1 0xF JUMPI PUSH1 0x0 DUP1 REVERT JUMPDEST POP PUSH2 0x105 DUP1 PUSH2 0x1F PUSH1 0x0 CODECOPY PUSH1 0x0 RETURN INVALID PUSH1 0x80 PUSH1 0x40 MSTORE CALLVALUE DUP1 ISZERO PUSH1 0xF JUMPI PUSH1 0x0 DUP1 REVERT JUMPDEST POP PUSH1 0x4 CALLDATASIZE LT PUSH1 0x28 JUMPI PUSH1 0x0 CALLDATALOAD PUSH1 0xE0 SHR DUP1 PUSH4 0x22E90CD5 EQ PUSH1 0x2D JUMPI JUMPDEST PUSH1 0x0 DUP1 REVERT JUMPDEST PUSH1 0x3C PUSH1 0x38 CALLDATASIZE PUSH1 0x4 PUSH1 0x71 JUMP JUMPDEST PUSH1 0x50 JUMP JUMPDEST PUSH1 0x40 MLOAD SWAP1 ISZERO ISZERO DUP2 MSTORE PUSH1 0x20 ADD PUSH1 0x40 MLOAD DUP1 SWAP2 SUB SWAP1 RETURN JUMPDEST PUSH1 0x0 PUSH8 0x119A195059D95B9D PUSH1 0xC2 SHL PUSH1 0x69 PUSH1 0x20 DUP5 ADD DUP5 PUSH1 0xB0 JUMP JUMPDEST CALLDATALOAD EQ SWAP3 SWAP2 POP POP JUMP JUMPDEST PUSH1 0x0 PUSH1 0x20 DUP3 DUP5 SUB SLT ISZERO PUSH1 0x82 JUMPI PUSH1 0x0 DUP1 REVERT JUMPDEST DUP2 CALLDATALOAD PUSH8 0xFFFFFFFFFFFFFFFF DUP2 GT ISZERO PUSH1 0x98 JUMPI PUSH1 0x0 DUP1 REVERT JUMPDEST DUP3 ADD PUSH1 0x40 DUP2 DUP6 SUB SLT ISZERO PUSH1 0xA9 JUMPI PUSH1 0x0 DUP1 REVERT JUMPDEST SWAP4 SWAP3 POP POP POP JUMP JUMPDEST PUSH1 0x0 DUP3 CALLDATALOAD PUSH1 0xBE NOT DUP4 CALLDATASIZE SUB ADD DUP2 SLT PUSH1 0xC5 JUMPI PUSH1 0x0 DUP1 REVERT JUMPDEST SWAP2 SWAP1 SWAP2 ADD SWAP3 SWAP2 POP POP JUMP INVALID LOG2 PUSH5 0x6970667358 0x22 SLT KECCAK256 CODESIZE CALLDATALOAD DELEGATECALL 0xAB 0xBA SWAP4 0x2B 0xD8 AND 0x2A ORIGIN BASEFEE 0xCD 0xBF LOG1 SWAP11 0xDE SHL 0xF8 SMOD PUSH22 0xE0835F95979A28E8976B664736F6C634300081A0033 "
		},
		"gasEstimates": {
			"creation": {
				"codeDepositCost": "588200",
				"executionCost": "infinite",
				"totalCost": "infinite"
			},
			"external": {
				"addDataEntry((bytes32,bytes32,uint64,uint64,(string,string,string,string),(bytes)))": "infinite",
				"dataEntries(uint256)": "infinite",
				"fheAgentAttestation()": "2337"
			}
		},
		"methodIdentifiers": {
			"addDataEntry((bytes32,bytes32,uint64,uint64,(string,string,string,string),(bytes)))": "98fb89d5",
			"dataEntries(uint256)": "325f4658",
			"fheAgentAttestation()": "6bc784e0"
		}
	},
	"abi": [
		{
			"inputs": [],
			"stateMutability": "nonpayable",
			"type": "constructor"
		},
		{
			"inputs": [
				{
					"components": [
						{
							"internalType": "bytes32",
							"name": "attestationType",
							"type": "bytes32"
						},
						{
							"internalType": "bytes32",
							"name": "sourceId",
							"type": "bytes32"
						},
						{
							"internalType": "uint64",
							"name": "votingRound",
							"type": "uint64"
						},
						{
							"internalType": "uint64",
							"name": "lowestUsedTimestamp",
							"type": "uint64"
						},
						{
							"components": [
								{
									"internalType": "string",
									"name": "data_id",
									"type": "string"
								},
								{
									"internalType": "string",
									"name": "data_hash",
									"type": "string"
								},
								{
									"internalType": "string",
									"name": "model",
									"type": "string"
								},
								{
									"internalType": "string",
									"name": "abi_signature",
									"type": "string"
								}
							],
							"internalType": "struct IFheAgent.RequestBody",
							"name": "requestBody",
							"type": "tuple"
						},
						{
							"components": [
								{
									"internalType": "bytes",
									"name": "abi_encoded_data",
									"type": "bytes"
								}
							],
							"internalType": "struct IFheAgent.ResponseBody",
							"name": "responseBody",
							"type": "tuple"
						}
					],
					"internalType": "struct IFheAgent.Response",
					"name": "fheResponse",
					"type": "tuple"
				}
			],
			"name": "addDataEntry",
			"outputs": [],
			"stateMutability": "nonpayable",
			"type": "function"
		},
		{
			"inputs": [
				{
					"internalType": "uint256",
					"name": "",
					"type": "uint256"
				}
			],
			"name": "dataEntries",
			"outputs": [
				{
					"internalType": "bytes32",
					"name": "encrypted_data_hash",
					"type": "bytes32"
				},
				{
					"internalType": "string",
					"name": "encrypted_data",
					"type": "string"
				},
				{
					"internalType": "string",
					"name": "encrypted_result",
					"type": "string"
				}
			],
			"stateMutability": "view",
			"type": "function"
		},
		{
			"inputs": [],
			"name": "fheAgentAttestation",
			"outputs": [
				{
					"internalType": "contract IFheAgentVerification",
					"name": "",
					"type": "address"
				}
			],
			"stateMutability": "view",
			"type": "function"
		}
	]
}